:100000000C944C070C9474070C9474070C94BE0E5B
:100010000C94BE0E0C94BE0E0C9474070C947407D2
:100020000C9474070C9474070C9474070C94740764
:100030000C9474070C9474070C9474070C94740754
:100040000C9491180C9474070C9474070C94740716
:100050000C9474070C9474070C9474070C94740734
:100060000C9400100C947407DB40A4A62EAFDA02A7
:1000700081DA1281DA02818F2000A1C8D300408D7D
:10008000AED580A800006000000000000000000065
:100090000000000000E00000000000000000000080
:1000A00000000001E000000000000000000000006F
:1000B000000001F00000000000000000000000004F
:1000C0000003F0000000000000000000000000003D
:1000D00007F0000000000000000000000000000722
:1000E000F8000000000000000000000000000FF811
:1000F00000000003C0007E000001E0007F0FF80058
:10010000000003C000FE000001E000FFEFF8000067
:100110000003C000FE000001E000FFFFF800000047
:1001200003C000F00000000F007FFE7FC00000034E
:10013000C000F00000000F003FFE7FF83FF1FBCF52
:10014000FCFEF3BC3DEFE01FFE7FFF7FFBFFDFFE09
:10015000FEFFBC3DEFE01FC6FFFF7FFBFFDFFEFEA3
:10016000FFBC3DEFE00FE3C7FE787BC3DE1EF0FF70
:10017000BC3DEF0007FF87FC787BC3DE1EF0F83C38
:100180003DEF0001FFFFF0007BC3C01EF0F03C3DDF
:10019000EF0001F37FE03FFBC3CFFEF0F03C3DEF0B
:1001A0000003E33F807FFBC3DFFEF0F03C3DEF0048
:1001B00007E73C00787BC3DE1EF0F03C3DEF000714
:1001C000FFBE00787BC3DE1EF0F03C3DEF0007FF72
:1001D000FE00787BC3DE1EF0F03C3DEF000FFFFE1B
:1001E000007FFBFFDFFEF0F03FFDEFE00FFFFF00C1
:1001F0007FFBFFDFFEF0F03FFDEFE00FF9FF003E79
:1002000079F9CF9EF0F01F3DE7E01FF1FF000000FD
:100210000000000000000000001F80FF007FFFFFC3
:10022000FFFFFFFFFFFFFFE01C007F007FFFFFFFDE
:10023000FEB46D888D18E000001F007FFFFFFFFEF9
:1002400095AD7DB577E000000F007FFFFFFFFEA5B5
:10025000AD9D8D19E0000006007FFFFFFFFEB5ADEC
:10026000EDB57EE00000000000018000000000000D
:1002700000000000038000000000000000000007F4
:10028000C000000000000000000007C000000000E7
:1002900000000000000FC00000000000000000008F
:1002A0001FE00000000000000000001FE000000050
:1002B0000000000000003FE000000000000000001F
:1002C000003FF00000000000000000007FF0000090
:1002D00000000000001FF87FF00000000000000098
:1002E0003FFE7FF0000000000000003FFF7FF000B5
:1002F0000000000000001FFFFBE000000000000005
:10030000000FFFF9FFC00000000000000FFFF9FF21
:10031000F800000000000007FFF1FFFF00000000F0
:10032000000003FC73FFFF80000000000001FE3F9F
:10033000FFFF80000000000000FF1E0FFF00000014
:10034000000000007FFE1FFC000000000000003FD6
:10035000FFFFF8000000000000000FDFFFE00000DA
:1003600000000000001F19FFC00000000000000096
:100370003F3CFF00000000000000007E7CF8000011
:100380000000000000007FFE7C0000000000000074
:1003900000FFFFFC0000000000000000FFFFFE0067
:1003A00000000000000000FFFFFE00000000000051
:1003B0000001FFEFFE0000000000000001FFCFFE83
:1003C0000000000000000003FF07FE000000000026
:1003D000000003FC07FE0000000000000003F00323
:1003E000FE00000000000000018000FE0000000090
:1003F0000000000000007E0000000000000000007F
:10040000003E000000000000000000000C000000A2
:10041000000000078000FC000003C000000007800F
:1004200001FC000003C0000000078001FC00000385
:10043000C0000000078001E00000001E000000076F
:100440008001E00000001E007FE3F79FF9FDE778E0
:100450007BDFC0FFF7FFBFFDFDFF787BDFC0FFF74D
:10046000FFBFFDFDFF787BDFC0F0F787BC3DE1FFFC
:10047000787BDE00F0F787BC3DE1F0787BDE0000A2
:10048000F787803DE1E0787BDE007FF7879FFDE125
:10049000E0787BDE00FFF787BFFDE1E0787BDE00E0
:1004A000F0F787BC3DE1E0787BDE00F0F787BC3DEC
:1004B000E1E0787BDE00F0F787BC3DE1E0787BDEB1
:1004C00000FFF7FFBFFDE1E07FFBDFC0FFF7FFBFED
:1004D000FDE1E07FFBDFC07CF3F39F3DE1E03E7B8D
:1004E000CFC00000000000000000000000FFFFFF80
:1004F000FFFFFFFFFFFFFFC0FFFFFFFFFD68DB11F6
:100500001A31C0FFFFFFFFFD2B5AFB6AEFC0FFFF50
:10051000FFFFFD4B5B3B1A33C0FFFFFFFFFD6B5B33
:10052000DB6AFDC0000000C0818000000000000008
:1005300000000000000003C3C780000000000000AE
:1005400000000000000003C3C7800000000000009E
:1005500000000000000001E3C3C000000000000034
:1005600000000000000001E3C3C000000000000024
:1005700000000000000001E3C3C000000000000014
:1005800000000000000003C3C7800000000000005E
:1005900000000000000003C3C7800000000000004E
:1005A00000000000000003C3C7800000000000003E
:1005B00000000000000001E3C3C0000000000000D4
:1005C00000000000000001C1838000000000000066
:1005D000000000000000000000000000000000001B
:1005E00018000000000000000000000001F1F0F021
:1005F0001800000000000000000000000199999818
:100600000000000000000000000000000199998C2B
:100610001BC000000003FFFFFFFFC00001F1F10C51
:100620001B0000000003FFFFFFFFC0000199998C31
:100630001BC000000003FFFFFFFFC0000199999855
:1006400018C000000003FFFFFFFFC00001F1F0F041
:100650001BC00000000078381C1E000000000018BD
:1006600000000000000078381C1E000000000000A0
:1006700000000000000078381C1E00000000000090
:10068000000000000000F87C3E1F00000000000099
:100690000000000001FFFFFFFFFFFF8000000000DF
:1006A0000000000001FFFFFFFFFFFF80018000004E
:1006B0006000000000FFFFFFFFFFFF000180000C53
:1006C00060000000000FFFFFFFFFF0000180000C42
:1006D00000000000000FFFFFFFFFF00001F1C79FC7
:1006E0006F9F0000000FFFFFFFFFF00001B360CC21
:1006F0006D9B0000000FFFFFFFFFF0000197E7CCAC
:100700006CB10000000FFFFFFFFFF00001930CCC65
:100710006C9B0000000FFFFFFFFFF0000191E7CE90
:100720006C9F0000000FFFFFFFFFE00000000000D3
:10073000000300000007FFFFFFFFE00000000000D3
:10074000001E00000007FFFFFFFFE00000000000A8
:10075000000000000003FFFFFFFFC00000000000DA
:10076000000000000003FFFFFFFFC00000000000CA
:10077000000000000001FFFFFFFF800000000000FC
:10078000000000000000FFFFFFFF0000000000006D
:10079000000000000000FFFFFFFF0000000000005D
:1007A0000000000000003FFFFFFC00000000000010
:1007B0000000000000001FFFFFF800000000000024
:1007C0000000000000000FFFFFF00000000000002C
:1007D0000000000000000FFFFFF00000000000001C
:1007E0000000000000000F0FF0F00000000000000B
:1007F0000000000000000F0000F0000000000000FA
:100800000000000000000E0000700000000000006A
:100810000000000000001E00007800000000000042
:100820000000000000001E00007800000000000032
:100830000000000000001E00007800000000000022
:100840000000000000003C00003C00000000000030
:100850000000000000003C00003C00000000000020
:100860000000000000003C00003C00000000000010
:100870000000000000003C00003F000000000000FD
:100880000000000000007800007F800000000000F1
:100890000000000000007800007FC00000000000A1
:1008A0000000000000007C0001FFE00000000000EC
:1008B0000000000000007FFFFFFFE00000000000DC
:1008C000000000000000FFFFFFFFE000000000004C
:1008D000000000000000FFFFFFFFE000000000003C
:1008E000000000000000F00000FFC0000000000059
:1008F000000000000001E000007FC00000000000D8
:10090000000000000001E000003F80000000000047
:100910000000000000006000001F00000000000058
:100920000000000000000000240027002A00000052
:10093000000800020100000304070000000000009E
:100940000000000103070F1F3F7F0080C0E0F0F8A8
:10095000FCFE00000000003E5B4F5B3E3E6B4F6BB9
:100960003E1C3E7C3E1C183C7E3C181C577D571C90
:100970001C5E7F5E1C00183C1800FFE7C3E7FF0009
:1009800018241800FFE7DBE7FF30483A060E262957
:10099000792926407F050507407F05253F5A3CE71A
:1009A0003C5A7F3E1C1C08081C1C3E7F14227F22E0
:1009B000145F5F005F5F06097F017F006689956AAB
:1009C000606060606094A2FFA29408047E04081036
:1009D000207E201008082A1C08081C2A08081E105F
:1009E0001010100C1E0C1E0C30383E3830060E3E17
:1009F0000E06000000000000005F00000007000776
:100A000000147F147F14242A7F2A1223130864629F
:100A100036495620500008070300001C2241000000
:100A200041221C002A1C7F1C2A08083E080800805E
:100A300070300008080808080000606000201008F6
:100A400004023E5149453E00427F400072494949F7
:100A5000462141494D331814127F10274545453929
:100A60003C4A49493141211109073649494936462D
:100A70004949291E0000140000004034000000080D
:100A800014224114141414140041221408020159B0
:100A900009063E415D594E7C1211127C7F4949493D
:100AA000363E414141227F4141413E7F49494941D2
:100AB0007F090909013E414151737F0808087F0001
:100AC000417F41002040413F017F081422417F4087
:100AD0004040407F021C027F7F0408107F3E41415E
:100AE000413E7F090909063E4151215E7F091929CE
:100AF00046264949493203017F01033F4040403FB8
:100B00001F2040201F3F4038403F631408146303F8
:100B1000047804036159494D43007F414141020477
:100B2000081020004141417F04020102044040407E
:100B30004040000307080020545478407F28444474
:100B4000383844444428384444287F38545454188E
:100B500000087E090218A4A49C787F080404780089
:100B6000447D40002040403D007F1028440000416B
:100B70007F40007C047804787C080404783844447E
:100B80004438FC1824241818242418FC7C08040475
:100B900008485454542404043F44243C4040207CDE
:100BA0001C2040201C3C4030403C44281028444C31
:100BB0009090907C4464544C4400083641000000FE
:100BC000770000004136080002010204023C26239F
:100BD000263C1EA1A161123A4040207A3854545557
:100BE0005921555579412254547842215554784021
:100BF00020545579400C1E527212395555555939A9
:100C00005454545939555454580000457C410002FD
:100C1000457D420001457C407D1211127DF0282562
:100C200028F07C545545002054547C547C0A097F9C
:100C30004932494949323A4444443A324A484830B0
:100C40003A4141217A3A42402078009DA0A07D3D62
:100C50004242423D3D4040403D3C24FF2424487EEA
:100C60004943662B2FFC2F2BFF0929F620C0887ED5
:100C7000090320545479410000447D413048484ADA
:100C800032384040227A007A0A0A727D0D19317D8D
:100C90002629292F28262929292630484D40203861
:100CA0000808080808080808382F10C8ACBA2F1020
:100CB0002834FA00007B000008142A142222142A87
:100CC00014085500550055AA55AA55AAFF55FF55B9
:100CD000FF000000FF00101010FF00141414FF00AC
:100CE0001010FF00FF1010F010F0141414FC00148A
:100CF00014F700FF0000FF00FF1414F404FC1414A8
:100D000017101F10101F101F1414141F00101010A4
:100D1000F0000000001F101010101F10101010F035
:100D200010000000FF101010101010101010FF1015
:100D3000000000FF140000FF00FF00001F1017005C
:100D400000FC04F414141710171414F404F4000035
:100D5000FF00F714141414141414F700F7141414E7
:100D6000171410101F101F141414F4141010F01086
:100D7000F000001F101F0000001F14000000FC14F2
:100D80000000F010F01010FF10FF141414FF1410E6
:100D900010101F00000000F010FFFFFFFFFFF0F039
:100DA000F0F0F0FFFFFF0000000000FFFF0F0F0F4B
:100DB0000F0F3844443844FC4A4A4A347E02020643
:100DC00006027E027E0263554941633844443C0476
:100DD000407E201E2006027E020299A5E7A5991CEE
:100DE0002A492A1C4C7201724C304A4D4D30304811
:100DF000784830BC625A463D3E494949007E01016F
:100E0000017E2A2A2A2A2A44445F444440514A4403
:100E10004040444A51400000FF0103E080FF0000D1
:100E200008086B6B083612362436060F090F0600C9
:100E30000018180000001010003040FF0101001FD2
:100E400001011E00191D1712003C3C3C3C00000033
:100E500000002200FF2100000000002300260029DE
:100E60000000000000250028002B000404040404F6
:100E70000404040202020202020303030303030147
:100E8000020408102040800102040810200102041E
:100E9000081020000E1FE01E11241FBECFEFD8E067
:100EA000DEBFCDBF12E0A0E0B1E0E8E9F7E402C0A8
:100EB00005900D92AA33B107D9F723E0AAE3B2E077
:100EC00001C01D92AF3AB207E1F717E0CBE4D7E0DB
:100ED00004C02197FE010E94AD21CA34D107C9F791
:100EE0000E94DB180C94BF230C940000CF92DF9279
:100EF000EF92FF920F931F93CF93DF936C017A01D0
:100F00008B01C0E0D0E0CE15DF0581F0D8016D91F6
:100F10008D01D601ED91FC910190F081E02DC6018B
:100F20000995892B11F02196EECF7E01C701DF9143
:100F3000CF911F910F91FF90EF90DF90CF90089588
:100F400020914202309143022817390771F49091A1
:100F5000400280914102981741F0E0914002F0E098
:100F6000E855FD4F808190E008958FEF9FEF089541
:100F700008951F93CF93DF93DC015C968D919C9134
:100F80005D97009739F421E030E013963C932E935F
:100F900012973BC05196ED91FC91529750962C912F
:100FA0005097322F30951FB75E964C915E97742FF5
:100FB000727041FD6095F8944081772311F0422BC7
:100FC00001C043234083EC012197F1F748E05081B1
:100FD00060FF02C0522B01C053235083EC012197C4
:100FE000F1F76695415099F78081772319F08323B3
:100FF000808302C0282B20831FBF5C968D919C911B
:101000005D970197F1F781E090E0DF91CF911F911B
:10101000089520914202309143022817390771F454
:10102000809141022091400290E0805C9F4F821BA2
:10103000910960E470E00E948521089580E090E0CD
:101040000895209142023091430228173907B9F4DC
:101050009091400280914102981789F0E0914002FE
:10106000F0E0E855FD4F80812091400230E02F5F95
:101070003F4F2F7333272093400290E008958FEF66
:101080009FEF0895FC0177FDB9C0808591856817B1
:1010900079070CF0B3C057FDB1C08285938548171E
:1010A00059070CF008958589823079F484819581FF
:1010B000DC01A61BB70BBD016150710986819781C8
:1010C000DC01A41BB50BAD010EC0833009F084C058
:1010D00064277527CA0186279727682779274681BD
:1010E0005781481B590B415051092130310531F0CE
:1010F00048F12230310509F44AC00895CA0157FD6C
:1011000007969C01A3E035952795AA95E1F7A48160
:10111000B5812A9FC0012B9F900D3A9F900D1124FD
:10112000680F791F068CF78DE02DE60FF71F4770CB
:10113000552781E090E001C0880F4A95EAF7908139
:10114000892B48C0CA0157FD07969C0193E035954D
:1011500027959A95E1F7A481B5812A9FC0012B9F1D
:10116000900D3A9F900D1124680F791F068CF78D12
:10117000E02DE60FF71F4770552781E090E001C092
:10118000880F4A95EAF780959081892323C0CA0188
:1011900057FD07969C0183E0359527958A95E1F7E1
:1011A000A481B5812A9FC0012B9F900D3A9F900D7D
:1011B0001124680F791F068CF78DE02DE60FF71FBD
:1011C0004770552781E090E001C0880F4A95EAF703
:1011D0009081892780830895813009F086CF642724
:1011E0007527462757276427752784819581DC0159
:1011F000A61BB70BBD016150710977CF0895089503
:10120000FC016370658B8481958126813781613013
:1012100039F0633029F091878087338722870895DA
:10122000318720879387828708956F927F928F926C
:101230009F92AF92BF92CF92DF92EF92FF920F9365
:101240001F93CF93DF93EC014B015A0169013801E1
:10125000E881F9810284F385E02D0995E881F9811F
:101260000288F389E02D87019601A501B401CE0122
:101270000995A501460D571D41505109E881F98195
:101280000288F389E02D9601B401CE010995E88129
:10129000F9810088F189E02D9301A501B401CE0107
:1012A0000995C80CD91CB60161507109E881F98112
:1012B0000088F189E02D9301A501CE010995E8810F
:1012C000F9810688F789E02DCE01DF91CF911F913A
:1012D0000F91FF90EF90DF90CF90BF90AF909F90D5
:1012E0008F907F906F9009948F929F92AF92BF9250
:1012F000CF92DF92EF92FF920F931F93CF93DF93E2
:101300004C016B015A01E901DC01ED91FC9162177E
:10131000730781F40417150724F48B2D5801042F4B
:10132000182F0A191B0998012F5F3F4F048CF58D68
:10133000E02D12C04017510709F52617370724F48E
:101340008D2D6901C62FD82F9E012C193D092F5FC5
:101350003F4F068CF78DE02D8701A501B601C40132
:101360000995DF91CF911F910F91FF90EF90DF9042
:10137000CF90BF90AF909F908F9008950284F38597
:10138000E02D0995D401ED91FC910488F589E02DBB
:101390009E01A501B601C4010995D401ED91FC910E
:1013A0000688F789E02DC401DF91CF911F910F913D
:1013B000FF90EF90DF90CF90BF90AF909F908F9075
:1013C0000994EF92FF920F931F93DC011A960D91EF
:1013D0001C911B9718962D913C911997ED91FC91BA
:1013E00000A0F1A1E02D7B0140E050E060E070E062
:1013F00009951F910F91FF90EF9008954F925F9282
:101400006F927F928F929F92AF92BF92CF92DF9214
:10141000EF92FF920F931F93CF93DF936C012B01F9
:101420005A0139014801DC01ED91FC910284F385F8
:10143000E02D0995E201640C751CD601ED91FC913B
:10144000C615D7055CF40088F189E02D8701940169
:10145000A501BE01C60109952196EFCF0688F7893F
:10146000E02DC601DF91CF911F910F91FF90EF907A
:10147000DF90CF90BF90AF909F908F907F906F90B4
:101480005F904F9009948F929F92AF92BF92CF92AC
:10149000DF92EF92FF920F931F93CF93DF93EC01B4
:1014A0005B014A016901E881F9810284F385E02D3D
:1014B000099595012C0D3D1D21503109E881F981D7
:1014C0000488F589E02D78018401A401B501CE01DD
:1014D0000995E881F9810688F789E02DCE01DF9131
:1014E000CF911F910F91FF90EF90DF90CF90BF9021
:1014F000AF909F908F9009948F929F92AF92BF92DE
:10150000CF92DF92EF92FF920F931F93CF93DF93CF
:10151000EC015B014A0169017801E881F9810284EB
:10152000F385E02D0995C80CD91C860101501109DD
:10153000E881F9810488F589E02D9501A401B501C0
:10154000CE010995E881F9810688F789E02DCE0161
:10155000DF91CF911F910F91FF90EF90DF90CF908F
:10156000BF90AF909F908F900994EF92FF920F934E
:101570001F93DC01ED91FC9100A0F1A1E02D0995F4
:101580001F910F91FF90EF9008950F931F93DC012F
:10159000ED91FC91068CF78DE02D09951F910F912F
:1015A00008950F931F93DC01ED91FC91048CF58D50
:1015B000E02D09951F910F910895DC01ED91FC91AB
:1015C0000084F185E02D09942F923F924F925F9213
:1015D0006F927F928F929F92AF92BF92CF92DF9243
:1015E000EF92FF920F931F93CF93DF9300D000D021
:1015F00000D0CDB7DEB72C017E836D836A0159011F
:10160000C801FC82EB824801841A950A97FE03C048
:1016100091948194910835012D813E81621A730A5B
:1016200077FE03C0719461947108681479045CF4C6
:101630003A2D2B2D5C01832F922F3D812E81DE824E
:10164000CD82C32ED22EAD81BE81AA16BB065CF41C
:101650003C2D2D2D6C01832F922F3D812E81BE823A
:10166000AD82A32EB22E85012D813E81021B130B6C
:101670001C012C183D0837FE03C031942194310819
:10168000780117FF03C03FEFE31AF30AF594E794DC
:10169000C816D9062CF08FEF9FEF9A83898304C078
:1016A000A1E0B0E0BA83A9832D813E81A216B306E2
:1016B00024F1D201ED91FC910484F585E02D2B817C
:1016C0003C816814790424F44D815E81B60103C025
:1016D000A6016D817E81C2010995E218F308F7FE2B
:1016E00006C029813A81C20ED31EE00EF11E8D8103
:1016F0009E8101969E838D83D7CF26960FB6F89450
:10170000DEBF0FBECDBFDF91CF911F910F91FF9034
:10171000EF90DF90CF90BF90AF909F908F907F9091
:101720006F905F904F903F902F90089585ED80933C
:10173000BC008091BC0084FDFCCF10921203089580
:1017400040918502262F30E0240F311D21323105D2
:10175000DCF4209112032430C9F4FC0180E090E015
:10176000861758F4309185022191DC01AB59BD4FA9
:10177000A30FB11D2C930196F3CF80918502680FC2
:101780006093850280E0089581E0089582E00895E5
:1017900008950895E0913F0280913E02E81730F4E9
:1017A000F0E0EB5BFD4F808190E008958FEF9FEFBD
:1017B000089590913F0280913E02981750F4E92FCE
:1017C000F0E0EB5BFD4F208130E09F5F90933F02A4
:1017D00002C02FEF3FEFC901089580913E0290E0D3
:1017E00020913F02821B91090895CF92DF92EF92E0
:1017F000FF920F931F93CF93DF937C01CB018A015C
:1018000020911303222389F0EB016B01C40ED51E36
:10181000CC15DD0569F06991D701ED91FC9101903E
:10182000F081E02DC7010995F3CF642F0E94A00B32
:10183000C801DF91CF911F910F91FF90EF90DF9042
:10184000CF900895CF93DF931F92CDB7DEB7698312
:10185000209113032223D1F020913603203240F04F
:1018600021E030E0FC013383228380E090E015C06A
:1018700080911403E82FF0E0EB5EFC4F9981908398
:101880008F5F809314038093360305C061E0CE011F
:1018900001960E94A00B81E090E00F90DF91CF9124
:1018A0000895089580E090E008950E949A230F9390
:1018B0001F93CF93DF93EC0188819981009729F0E2
:1018C0002A813B812617370788F48B016F5F7F4F92
:1018D0000E94D422009761F0998388831B830A8336
:1018E0002C813D81232B11F4FC01108281E001C089
:1018F00080E0DF91CF911F910F91089561157105DF
:1019000079F0FB0101900020E9F73197AF01461B08
:10191000570BDC01ED91FC910280F381E02D0994DD
:1019200080E090E008950F931F93CF93DF93DC0145
:101930005596EC915597E23071F0E330E9F0E130E3
:1019400079F5FB0114960D90BC91A02DA41BB50B4D
:10195000A21BB30B18C0EC01EC81FD81E61BF70B59
:10196000BF0161507109EE81FF81DF01A41BB50B3E
:10197000AD01421B530B14C0DA01EC01EE81FF8173
:10198000E61BF70B3197F7FD0DC0EC014E815F812F
:10199000E417F5073CF4AF01BD010E948D1602C0AB
:1019A0000E94F416DF91CF911F910F9108950F932C
:1019B0001F93DC015596EC915597E23061F0E330CE
:1019C00009F1E13081F51496ED91FC911597E41B36
:1019D000F50B319723C0DC011496ED91FC9115971E
:1019E000DF01A61BB70BBD01DC011696ED91FC9142
:1019F0001797DF01A41BB50BAD0141505109621BC4
:101A0000730B11C0FA01DC0116964D915C9117978A
:101A1000DA01A61BB70BBD01621B730BAB01BF0143
:101A20000E94F4160CC057FD0AC0DC011696ED9119
:101A3000FC9117974E175F0714F40E948D161F91A3
:101A40000F910895AF92BF92CF92EF92FF920F93B2
:101A50001F93CF93DF93EC01262F888D998D0097EC
:101A600009F040C06A3059F41D861C862C898E8589
:101A70009F8538E0239F800D911D112441C06D305A
:101A800009F4AAC08E898823C1F03C898C859D8584
:101A900046E0349F800D911D1124488559854817D3
:101AA00059075CF41D861C868E859F8548E0349F0F
:101AB000800D911D11249F878E87EA88FB880889F5
:101AC00019894E855F856C857D85CC88CE010E9405
:101AD00073142C898C859D8536E0239F800D911D84
:101AE000112442C06A3079F41D861C862C89FC01C1
:101AF0003696E4918E859F852E9F800D911D112431
:101B00009F878E8769C06D3009F466C0FC013496EA
:101B10003491631708F460C03196E491E61708F435
:101B20005BC0FC01329665917491422F50E0431BDB
:101B3000510937E0349F5001359FB00C1124A60E97
:101B4000B71EF501329634913196E491332311F0AA
:101B5000E1110DC0F5013496E4912C898C859D85A9
:101B6000E29F800D911D11249D878C8735C0F50162
:101B7000359644915E89552311F16C89E32FF0E08D
:101B8000E40FF11D47FDFA956E9FD0016F9FB00DD8
:101B900011244C855D854A0F5B1FE885F985E417A4
:101BA000F5076CF41D861C86FC013696E4918E8543
:101BB0009F856E9F800D911D11249F878E87EA88D7
:101BC000FB88088919894E855F856C857D85CC8861
:101BD000CE010E947314BECF81E090E0DF91CF91DF
:101BE0001F910F91FF90EF90CF90BF90AF9008950D
:101BF000EF92FF920F931F93CF93DF9361157105BF
:101C000011F480E01CC041155105C1F07B01EC01CD
:101C10008C819D818A01080F191FB801CE010E9495
:101C2000570C882371F3288139818C819D81B701FC
:101C3000820F931F0E94B8231D830C8381E0DF91E4
:101C4000CF911F910F91FF90EF900895CF93DF9365
:101C5000EC0188819981009711F00E944B22198232
:101C600018821D821C821B821A82DF91CF910895F7
:101C7000EF92FF920F931F93CF93DF93EC017B01C1
:101C80008A01BA010E94570C811104C0CE010E9442
:101C9000260E07C01D830C83B701888199810E949D
:101CA000B823CE01DF91CF911F910F91FF90EF905C
:101CB0000895FC01808191810C944B22FB01DC0191
:101CC00011961C921E9213961C921E9212971596B4
:101CD0001C921E9214978617970749F060817181B4
:101CE0006115710521F0448155810C94380E0895D9
:101CF000FC011182108213821282158214826115F6
:101D0000710551F0FB0101900020E9F73197AF0117
:101D1000461B570B0C94380E08950F931F93CF93C7
:101D2000DF93EC010E947E0C8C016FE172E0CE012A
:101D30000E947E0C800F911FDF91CF911F910F9118
:101D400008950F931F93CF93DF93EC01FB01448120
:101D5000558160817181E881F9810280F381E02DF4
:101D600009958C016FE172E0CE010E947E0C800F1C
:101D7000911FDF91CF911F910F9108951F920F92A4
:101D80000FB60F9211242F933F934F935F936F934E
:101D90007F938F939F93AF93BF93EF93FF93E091C4
:101DA0004202F0914302309709F451C0968DA68506
:101DB000B785858591FF04C09C91892329F447C08C
:101DC0009C91892309F043C0A389B4899C9185899A
:101DD000809589238C93868997890197F1F7608D87
:101DE000718DA685B785558538E020E0CB01019738
:101DF000F1F7822F90E095958795282F4C914523F8
:101E000009F02068315091F7868D81FD20958091F1
:101E1000410290E001968F73992730914002381764
:101E200049F0A0914102B0E0A855BD4F2C9380939A
:101E3000410203C0868D8160868F828D938D0197CC
:101E4000F1F7A389B4899C918589892B8C93FF91A3
:101E5000EF91BF91AF919F918F917F916F915F9122
:101E60004F913F912F910F900FBE0F901F9018959B
:101E700008958EBD00000DB407FEFDCF8EB5089508
:101E80001F93CF93DF93FC01848D958D009729F1EB
:101E9000162FEF0120A131E0309313032093350377
:101EA0001092140310923603DC01ED91FC91019025
:101EB000F081E02D60E009958C8D9D8DDC01ED9128
:101EC000FC910190F081E02D612F09958C8D9D8D05
:101ED000DF91CF911F910C942E11A4A5B5A59C91D3
:101EE00082A9809589238C93828D938D892B31F0E3
:101EF000862FDF91CF911F910C94390F28E030E0AD
:101F000080E8A0A5B1A590A9462F482319F04C91CF
:101F1000942B03C04C91909594239C93A2A5B3A5B8
:101F20004C9191A9942B9C93A2A5B3A54C9191A9F6
:101F3000909594239C9386952150310911F7DF9158
:101F4000CF911F9108958CBD9DBD08951F93CF9390
:101F5000DF93EC01162F8C8D9D8D892BB1F02EA96E
:101F60003FA948AD59AD60E072E18AE790E00E9478
:101F70005421DA01C9014097A109B109B695A79585
:101F8000979587958093B8000FC08A8D9B8D892B7C
:101F900021F08CA99DA90E94A30FEEA5FFA5908119
:101FA0008BA9809589238083111102C066EA01C044
:101FB00067EACE010E94400F8C8D9D8D892BB1F078
:101FC0002AAD3BAD4CAD5DAD60E072E18AE790E0DB
:101FD0000E945421DA01C9014097A109B109B695BF
:101FE000A795979587958093B80006C0EEA5FFA5A5
:101FF00090818BA9892B8083DF91CF911F910895C8
:102000001F920F920FB60F9211242F933F934F936D
:102010005F936F937F938F939F93AF93BF93EF9350
:10202000FF938091B900887F803609F49CC068F5E1
:10203000883209F45BC090F4803109F454C038F45C
:10204000882309F4F6C0883009F44DC0F6C0883101
:1020500009F44CC0803209F45DC0EFC0803409F44B
:1020600068C048F4803309F455C0883309F0E5C0EE
:1020700080931003D8C0803509F44FC0883509F427
:102080005DC0883409F0D9C0D6C0883909F4C7C00A
:10209000A8F4883709F467C038F4883609F463C0B7
:1020A000803709F460C0C9C0883809F4B8C08039E5
:1020B00009F45FC0803809F0C0C05BC0803B09F400
:1020C00086C038F4803A09F466C0883A09F47FC0C3
:1020D000B4C0803C09F4A7C0883C09F4A4C0883B84
:1020E00009F48AC0AAC08091ED0210C090910F033C
:1020F00080910E03981770F5E0910F0381E08E0F29
:1021000080930F03F0E0E251FD4F80818093BB008C
:1021100085EC86C0809310038EC0E0910F0381E0B0
:102120008E0F80930F038091BB00F0E0E251FD4FD2
:10213000808390910F0380910E036EC0E0910F0396
:1021400081E08E0F80930F038091BB00F0E0E2519D
:10215000FD4F80838091110381116DC081E08093D8
:10216000EC0284EA61C083E0809312031092A7021C
:10217000CFCF8091A702803208F051C0E091A70232
:1021800081E08E0F8093A7028091BB00F0E0E957B9
:10219000FD4F8083BDCF85EC8093BC00109212036D
:1021A0008091A702803230F4E091A702F0E0E95775
:1021B000FD4F10826091A70270E0E0913A02F09129
:1021C0003B0287E892E009951092A70236C084E0AE
:1021D000809312031092860210928502E0913C02D5
:1021E000F0913D02099580918502811105C081E041
:1021F0008093850210926502E091860281E08E0F45
:1022000080938602F0E0EB59FD4F80818093BB0004
:102210009091860280918502981708F479CF85E81D
:102220008093BC000AC085EC8093BC00109212031E
:1022300004C0109210030E94960BFF91EF91BF9182
:10224000AF919F918F917F916F915F914F913F914E
:102250002F910F900FBE0F901F901895309136035D
:10226000313208F04BC0809112038111FCCF909164
:10227000350322E02093120321E0209311032FEF76
:102280002093100310920F0330930E03E5E1F3E067
:10229000AEEEB2E020E0321721F041914D932F5F76
:1022A000FACF1092ED022091ED02990F922B9093AC
:1022B000ED029091EC02913061F41092EC02909159
:1022C000ED029093BB009091BC0093FDF8CF95EC8C
:1022D00001C095EE9093BC00909112039230E1F30F
:1022E000909110039F3F79F080911003803241F06C
:1022F00080911003803331F084E005C081E003C099
:1023000082E001C083E01092140310923603109211
:1023100013030895DF92EF92FF920F931F93CF93D1
:10232000DF93D82ED92FC62F80917803909179030F
:10233000009709F454C020917C0331E030931303DB
:10234000209335031092140310923603DC01ED91B3
:10235000FC910190F081E02D60E00995ED2CFD2EBF
:1023600011E0D1E08091780390917903CC2371F151
:102370001032C8F00E942E1180917C03D093130379
:1023800080933503109214031092360380917803E2
:1023900090917903DC01ED91FC910190F081E02DA9
:1023A00060E0099511E08091780390917903F7013D
:1023B0006491DC01ED91FC910190F081E02D099593
:1023C0001F5FC150BFEFEB1AFB0ACCCFDF91CF915B
:1023D0001F910F91FF90EF90DF900C942E11E091E0
:1023E0008803F0918903908180918E0380958923E1
:1023F00080830D2D1D2FCC2309F439C0F801849161
:102400002091760330917703232B31F00E94390F0E
:10241000C1500F5F1F4FEFCF28E030E040E8E09160
:102420008403F091850390918C03582F542319F065
:102430005081952B03C05081909595239083E09116
:102440008603F0918703508190918D03952B9083A3
:10245000E0918603F0918703508190918D039095D0
:1024600095239083469521503109C9F6D1CFDF914C
:10247000CF911F910F91FF90EF90DF900895EF9211
:10248000FF920F931F93CF93DF93809178039091E6
:102490007903892BD1F020919203309193034091DD
:1024A00094035091950360E072E18AE790E00E9406
:1024B0005421DA01C9014097A109B109B695A79540
:1024C000979587958093B80016C080917603909178
:1024D0007703892B31F080919003909191030E94B2
:1024E000A30FE0918A03F0918B03908180918F0379
:1024F00080958923808365E082E59EE00E948A11B1
:102500006091600361508CE593E00E94400F209140
:10251000620330916303C901079697FD079633E084
:10252000959587953A95E1F7209160033091610385
:10253000829F8001839F100D929F100D1124C091E6
:102540007A03D0917B0380917803909179030C0FEB
:102550001D1F009709F44CC020917C0331E030939B
:102560001303209335031092140310923603DC01F9
:10257000ED91FC910190F081E02D60E40995FF243C
:10258000F394EE24E39480917803909179030C17EF
:102590001D0759F1BFE1BF15D0F40E942E118091A3
:1025A0007C03E0921303809335031092140310927E
:1025B00036038091780390917903DC01ED91FC91D1
:1025C0000190F081E02D60E40995FF24F39480915F
:1025D0007803909179036991DC01ED91FC91019070
:1025E000F081E02D0995F394CECF0E942E1141C0C9
:1025F000E0918803F0918903908180918E03892B6B
:1026000080830C171D07A9F18991209176033091E1
:102610007703232B19F00E94390FF3CF28E030E025
:1026200040E8E0918403F091850390918C03582F4A
:10263000542319F05081952B03C050819095952318
:102640009083E0918603F0918703508190918D03F0
:10265000952B9083E0918603F091870350819091B0
:102660008D03909595239083469521503109C9F6A5
:10267000C8CF8091780390917903892BD1F0209174
:10268000960330919703409198035091990360E02D
:1026900072E18AE790E00E945421DA01C901409773
:1026A000A109B109B695A795979587958093B8002C
:1026B00017C0E0918A03F0918B03908180918F0382
:1026C000892B80838091760390917703892B41F049
:1026D000DF91CF911F910F91FF90EF900C94380FE5
:1026E000DF91CF911F910F91FF90EF900895CF93BD
:1026F000DF93EC01FB0144815581608171810E946F
:10270000F80D811103C0CE010E94260ECE01DF918B
:10271000CF9108952091620330916303C901079618
:1027200097FD079623E0959587952A95E1F72091E7
:10273000600330916103829FA001839F500D929F9F
:10274000500D112460E070E080917A0390917B033A
:102750000C94A8233F924F925F926F927F928F9238
:102760009F92AF92BF92CF92DF92EF92FF920F9320
:102770001F93CF93DF93CDB7DEB728970FB6F894AA
:10278000DEBF0FBECDBF4C017E836D832A013901B0
:10279000C801079697FD07969C0193E0359527950C
:1027A0009A95E1F73C832B83A12CB12CC12CD12C21
:1027B000312CC2018C0D9D1D9A838983CE14DF04B8
:1027C000D4F518861F822F813885201731075CF5D4
:1027D000C90187709927892B11F0330C0EC0EF8146
:1027E000F885F7FD379683E0F595E7958A95E1F74B
:1027F000EA0DFB1DE60DF71D349037FE0DC021E0FC
:1028000030E049815A816D817E818F819885680F82
:10281000791FC4010E94DD0A2F8138852F5F3F4F49
:1028200038872F83D0CF3FEFC31AD30A8B819C8187
:10283000A80EB91EBECF28960FB6F894DEBF0FBE05
:10284000CDBFDF91CF911F910F91FF90EF90DF905F
:10285000CF90BF90AF909F908F907F906F905F9040
:102860004F903F9008952FB7F8948091E80290918F
:10287000E902A091EA02B091EB022FBF80934503D9
:1028800090934603A0934703B09348038DE393E0EE
:102890000E94210897FF26C02FB7F8948091E80284
:1028A0009091E902A091EA02B091EB022FBF409112
:1028B0004503509146036091470370914803841B80
:1028C000950BA60BB70B40914103509142036091C9
:1028D00043037091440384179507A607B707B0F226
:1028E0008FEF9FEF08952F923F924F925F926F92DA
:1028F0007F928F929F92AF92BF92CF92DF92EF9290
:10290000FF920F931F93CF93DF93CDB7DEB76B97F3
:102910000FB6F894DEBF0FBECDBF9B8F8A8F5B01D1
:102920001A01D22E1F830E833701C982DC0158960B
:102930002D913C9159972115310509F0E6C0189663
:102940008D919C911997681779070CF0CDC11A9653
:102950008D919C911B97481759070CF0C5C18C2C81
:10296000912CFB0126E0C29EE00DF11D1124FB8796
:10297000EA871E161F060CF0B7C1A40183E0440FBE
:10298000551F8A95E1F75D874C87CA01820D931D1B
:10299000181619060CF0A8C157968C91811104C025
:1029A0005FEA5D1508F4D394AA8DBB8DED91FC917F
:1029B00011970284F385E02DCD010995B5E0DB9EEA
:1029C000C0011124F5013596FF87EE87BB82AA82EC
:1029D00025019C012A193B09398B288BA101485FED
:1029E0005F4F5B8B4A8BE889F989E40DF51DEE5A40
:1029F000F64F5491588761013D822C82888580FF73
:102A000013C0AA8DBB8DED91FC91B981B13031F429
:102A10000484F585E02D2E813F8116C00684F7855C
:102A2000E02DEE80FF801AC0EE81FF81E615F705EC
:102A3000F1F0AA8DBB8DED91FC91B981B13051F4CB
:102A40000484F585E02D9301A601B2018A8D9B8D4A
:102A500009950DC00684F785E02D7301840194016A
:102A60004C815D816A817B818A8D9B8D0995E8858A
:102A7000E695E887FFEFCF1ADF0A2C813D81280D0C
:102A8000391D3D832C834A895B89C416D50609F01C
:102A9000B5CF5FEF451A550A8A819B81880D991D34
:102AA0009B838A83AE85BF854A165B0609F09BCF60
:102AB000EE81FF81E615F70509F4F4C0EA8DFB8D80
:102AC000A081B181F981F13079F4B5016B5F7F4F5D
:102AD0005096ED91FC915197830128E030E0A101DF
:102AE0008A8D9B8D0995DEC06A857B856819790979
:102AF0001E96ED91FC911F9773010C851D85940125
:102B0000A1018A8D9B8D0995CDC0F9013496E49180
:102B1000DE1AF901329685919491B7E0DB9E800D23
:102B2000911D1124F901259134913B8B2A8BFC01D5
:102B3000259134912901FC013296C490319634914B
:102B40003E87329614913196D4904981423058F0A4
:102B5000612E012E000C77088D2D0D2C000C990B89
:102B60009987888704C019861886612C712CAA8DD4
:102B7000BB8DED91FC9111970284F385E02DCD0181
:102B80000995B9818B2E912C689CC001699C900D90
:102B9000789C900D1124FC01EA0DFB1DFD87EC874C
:102BA0001A82712C612CE12F110FFF0B95012E0F52
:102BB0003F1F3B872A87AC0CB11CA5014E0F5F1F3E
:102BC0005F8B4E8BC1018D0D911DD7FC9A95998F0E
:102BD000888F9E85691608F065C0862D90E048852F
:102BE0005985480F591F489D9001499D300D589DAA
:102BF000300D1124D101A20FB31FB98BA88BEC8526
:102C0000FD85FD83EC83AA84BB84DA80FA85DF1A14
:102C1000288D398D280F391F3D8B2C8B8D2D8A0DDA
:102C20004E895F89A416B506C1F1877041F4C201CF
:102C30000196EA89FB89E40DF51D74902C0177FE5D
:102C400021C0AA8DBB8DED91FC91B981B13061F4A9
:102C50000484F585E02D2E813F814C895D89B50185
:102C60008A8D9B8D09950EC00684F785E02DEE8038
:102C7000FF8084019401488959896C817D818A8D06
:102C80009B8D0995770CEFEFAE1ABE0A2C813D8122
:102C9000280D391D3D832C83C1CF3A813C0D3A83E9
:102CA000639497CFAA8DBB8DED91FC911197068807
:102CB000F789E02DCD016B960FB6F894DEBF0FBEFD
:102CC000CDBFDF91CF911F910F91FF90EF90DF90DB
:102CD000CF90BF90AF909F908F907F906F905F90BC
:102CE0004F903F902F9009946B960FB6F894DEBFEB
:102CF0000FBECDBFDF91CF911F910F91FF90EF904D
:102D0000DF90CF90BF90AF909F908F907F906F900B
:102D10005F904F903F902F9008950F931F93CF9304
:102D2000DF9377FF04C0260F371F60E070E0DC01FF
:102D30001496CD91DC911597FB01E20FF31FCE178E
:102D4000DF071CF49E01261B370B121613060CF02E
:102D500046C0FA0157FD3796DF01E3E0B595A79528
:102D6000EA95E1F7AC9FF001AD9FF00DBC9FF00D2F
:102D700011246E0F7F1FDC015E96ED91FC915F9731
:102D8000E60FF71F4770552781E090E001C0880FDC
:102D90004A95EAF7482F0130110539F078F00230F2
:102DA0001105E9F42E0F3F1F13C02E0F3F1FE2172E
:102DB000F307A9F08081842B8193F9CF80952E0FA2
:102DC0003F1FE217F30759F0908198239193F9CFB1
:102DD000E217F30721F0808184278193F9CFDF91F7
:102DE000CF911F910F910895EF92FF920F931F9330
:102DF000CF93DF93EC0177FDA5C0EC80FD806E15CD
:102E00007F050CF09FC057FF04C0240F351F40E022
:102E100050E08E819F81FA01E20FF31F8E179F070A
:102E20001CF49C01241B350B121613060CF08AC0EF
:102E3000922F842F8695869586958E9DD0018F9DA5
:102E4000B00D11246A0F7B1FAE8DBF8DA60FB71F6B
:102E50004770B1F188E0841B482F682F70E0FB01B8
:102E6000E65BF64FE491281798F4621B71092FEF87
:102E700030E002C0359527956A95E2F7E2230130EC
:102E8000110549F078F00230110509F05BC00EC061
:102E90000130110519F48C91E82B0AC0013011059D
:102EA00008F049C0E0958C91E82302C08C91E82796
:102EB000EC93941708F446C02C813D81A20FB31FF8
:102EC000E92FE41BE830F8F00230110561F48E2F91
:102ED0009C9190959C932C813D81A20FB31F8850AB
:102EE0008830B0F70FC081E00115110509F480E0CA
:102EF00081959E2F8C932C813D81A20FB31F9850FA
:102F00009830C0F7E770EE23E9F0F0E0EE5BF64FA3
:102F1000E4910130110539F048F00230110591F4C7
:102F20008C91E82706C08C91E82B03C0E0958C912A
:102F3000E823EC9307C00230110509F4B7CFAE0DBA
:102F4000BF1DBECFDF91CF911F910F91FF90EF90EA
:102F5000089590E0FC01E25DF64F2491FC01E158F8
:102F6000F14F3491FC01E559F14FE491EE2309F45E
:102F70003CC0222339F1233091F038F42130A9F0FC
:102F8000223001F584B58F7D12C0273091F02830B2
:102F9000A1F02430B9F4809180008F7D03C080912E
:102FA00080008F77809380000DC084B58F7784BDBB
:102FB00009C08091B0008F7703C08091B0008F7DF1
:102FC0008093B000F0E0EE0FFF1FEF59F14FA59195
:102FD000B4919FB7F894611104C08C913095382357
:102FE00002C0EC913E2B3C939FBF0895CF93DF939B
:102FF00090E0FC01E158F14F2491FC01E559F14FBB
:103000008491882361F190E0880F991FFC01EC5DA9
:10301000F64FC591D491FC01EF59F14FA591B491B0
:10302000611109C09FB7F894888120958223888315
:10303000EC912E230BC0623061F49FB7F894888125
:10304000322F309583238883EC912E2B2C939FBFB6
:1030500006C08FB7F894E8812E2B28838FBFDF91AD
:10306000CF9108958F929F92AF92BF92CF92DF92AD
:10307000EF92FF926B017C010E946C184B015C0186
:10308000C114D104E104F104F1F00E946C18DC01D8
:10309000CB0188199909AA09BB09883E9340A1056B
:1030A000B10570F321E0C21AD108E108F10888EEF9
:1030B000880E83E0981EA11CB11CC114D104E10448
:1030C000F10419F7DDCFFF90EF90DF90CF90BF9024
:1030D000AF909F908F9008953FB7F8948091A70389
:1030E0009091A803A091A903B091AA0326B5A89B2B
:1030F00005C02F3F19F00196A11DB11D3FBFBA2F8A
:10310000A92F982F8827820F911DA11DB11DBC01E9
:10311000CD0143E0660F771F881F991F4A95D1F7AD
:1031200008951F920F920FB60F9211242F933F9381
:103130008F939F93AF93BF938091E8029091E902A0
:10314000A091EA02B091EB023091A60326E0230F92
:103150002D3720F40296A11DB11D05C029E8230FCB
:103160000396A11DB11D2093A6038093E8029093BE
:10317000E902A093EA02B093EB028091A703909139
:10318000A803A091A903B091AA030196A11DB11DA6
:103190008093A7039093A803A093A903B093AA03D5
:1031A000BF91AF919F918F913F912F910F900FBE43
:1031B0000F901F901895CF93DF93CDB7DEB7CC5407
:1031C000D1090FB6F894DEBF0FBECDBF789484B599
:1031D000826084BD84B5816084BD85B5826085BD13
:1031E00085B5816085BD80916E00816080936E00A1
:1031F0001092810080918100826080938100809193
:103200008100816080938100809180008160809343
:1032100080008091B10084608093B1008091B00003
:1032200081608093B00080917A00846080937A00FE
:1032300080917A00826080937A0080917A008E7FFC
:1032400080937A0080917A00806880937A0010924F
:10325000C10080917A0390917B03892B11F5209115
:10326000620330916303C901079697FD0796A3E0B7
:1032700095958795AA95E1F72091600330916103B8
:10328000AC01429FC001439F900D529F900D1124AD
:103290000E94B32190937B0380937A03892B09F4D6
:1032A00015C10E948A13809162039091630360911B
:1032B000600370916103813291050CF44AC4AC0142
:1032C0004054510957FF02C04F5F5F4F55954795D6
:1032D0006255710977FF02C06F5F7F4F75956795E3
:1032E000E0E4EE2EF12C02E510E024E632E08CE57D
:1032F00093E00E94AA1382E080937D03809178037B
:1033000090917903892B09F43DC48CE380937C036D
:1033100010923F0210923E02109214031092360354
:103320001092120381E0809311031092EC0261E08D
:1033300082E10E94A91761E083E10E94A9178091B0
:10334000B9008E7F8093B9008091B9008D7F809302
:10335000B90080E28093B80085E48093BC0088ECDB
:103360009BE090933D0280933C0289EC9BE090931C
:103370003B0280933A028091830387FD1EC061E087
:103380000E94F61761E0809183030E94A91761E013
:1033900070E080E090E00E94321860E0809183034A
:1033A0000E94A9176AE070E080E090E00E94321865
:1033B00061E0809183030E94A91780917803909126
:1033C0007903892B09F49DC42091920330919303D2
:1033D000409194035091950360E072E18AE790E098
:1033E0000E945421DA01C9014097A109B109B6959B
:1033F000A795979587958093B80064E080E890E062
:103400000E948A116091620361508CE593E00E94F2
:10341000400F64E08CE790E00E948A1180917D0368
:10342000813009F485C464E18CE593E00E94400F8B
:1034300064E088E790E00E948A1180916003909197
:1034400061038038910509F086C4809162039091F0
:1034500063038032910509F06DC464E084E790E075
:103460000E948A1169ED8CE593E00E94400F8091E3
:103470007D03813009F48BC461EF8CE593E00E94F9
:10348000400F66E088E690E00E948A118091780300
:1034900090917903892B09F47CC420919603309193
:1034A0009703409198035091990360E072E18AE795
:1034B00090E00E945421DA01C9014097A109B109A5
:1034C000B695A795979587958093B80061E272E0CD
:1034D000CE0101966C010E94780E0E948A13109210
:1034E00069031092680310926B0310926A0381E0E3
:1034F0008093700321E030E030936F0320936E03DC
:1035000030936D0320936C03809373036AE571E03D
:103510008CE593E00E948D0E0E943F12C6010E942E
:10352000590E10925803109257031092560310929E
:10353000550310925403109253038DEC90E0909336
:103540005A038093590390914903963108F058C06B
:1035500025E530E030935403209353032BEC30E007
:10356000309356032093550320E930E030935803FD
:103570002093570340916800983058F031E09E3016
:1035800008F430E021E0822F01C0880F3A95EAF775
:1035900001C084E0842B80936800983038F09E301E
:1035A00040F0963148F020E030E008C02DE630E0F1
:1035B00005C02BE630E002C02CE630E0309351032A
:1035C00020935003983030F481E001C0880F9A9521
:1035D000EAF70EC0292F30E09E3018F42850310948
:1035E00002C02E50310981E001C0880F2A95EAF708
:1035F000809352038091590390915A030197F1F7F8
:103600008091570390915803892B49F1E091420230
:10361000F091430293E0ED33F90709F1309739F067
:10362000A389B4899C918589809589238C93809105
:103630005B038E7F80935B031092410210924002E5
:103640008DE393E09093430280934202E091500314
:10365000F0915103908180915203892B808388EEF1
:1036600093E0A0E0B0E08093410390934203A093E5
:103670004303B09344036DE671E08DE393E00E9451
:103680008D0E66E771E08DE393E00E948D0E6FE78B
:1036900071E08DE393E00E948D0E6DE871E08DE3A3
:1036A00093E00E948D0E6BE971E08DE393E00E9440
:1036B0008D0E66EA71E08DE393E00E948D0E68EB5B
:1036C0007BE080E090E00E94321828E2222E312C2C
:1036D000412C512C3CE3632E712CAA24A394B12CD1
:1036E00090E0892E90E0992E0E94532029961FAEDB
:1036F0001EAE29972B961FAE1EAE2B972D961FAE92
:103700001EAE2D97A20191010E94EB2068537F4FBE
:103710008F4F9F4F2AE0A6010E94AA20F601019038
:103720000020E9F73197AF014C195D09B601CE01D0
:10373000895B9F4F0E94380EBE01695B7F4FCE01AF
:1037400083960E945E0E0E948A1380E4E82EF12C7C
:1037500000E810E024E235E040E050E060E070E096
:103760008CE593E00E94AA130E943F1270926903B5
:103770006092680348E250E050936B0340936A0301
:1037800051E050937003B0926F03A0926E03B09219
:103790006D03A0926C0350937303BE016D5D7F4F68
:1037A000C6010E945E0E48E050E06FEA71E0C6017B
:1037B0000E94F80D882309F4FFC2B6018CE593E05E
:1037C0000E94A10EC6010E94590E0E943F12CE0116
:1037D00083960E94590E68EB71E0C6010E94780E34
:1037E000BE01695B7F4FC6010E947713BC018DE368
:1037F00093E00E94A10EC6010E94590E61E272E0A0
:10380000CE018F5B9F4F0E94780E0E94331497FD6C
:103810000BC089831A8241E050E0B601CE018F5B74
:103820009F4F0E94F80DF1CF27968EAD9FAD279741
:10383000892B09F44DC16EEB71E023968EAD9FADDF
:1038400023970E94AF23892B09F042C161E272E005
:10385000CE01CB960E94780E0E948A1310926903C3
:103860001092680310926B0310926A036AEC71E085
:103870008CE593E00E948D0E66ED71E08CE593E09F
:103880000E948D0E67EE71E0CE01C5960E94780E03
:1038900069EE71E0CE018F960E94780E69EE71E0BC
:1038A000CE0189960E94780E6BEE71E0C6010E94EF
:1038B000780EB601CE0183960E945E0EBE01675D52
:1038C0007F4FCE0183960E947713BE01615D7F4FCB
:1038D0000E947713BE016B5C7F4F0E947713BC017F
:1038E0008CE593E00E94A10ECE0183960E94590EB2
:1038F000C6010E94590ECE0189960E94590ECE0132
:103900008F960E94590ECE01C5960E94590E6DEEFB
:1039100071E0CE01C5960E94780E68E372E0CE0198
:103920008F960E94780E6FEE71E0CE0189960E940C
:10393000780E61EF71E0C6010E94780EB601CE01EB
:1039400083960E945E0EBE01675D7F4FCE01839617
:103950000E947713BE01615D7F4F0E947713BE0105
:103960006B5C7F4F0E947713BC018CE593E00E9453
:10397000A10ECE0183960E94590EC6010E94590ED7
:10398000CE0189960E94590ECE018F960E94590E43
:10399000CE01C5960E94590E6FEE71E0CE01C5961C
:1039A0000E94780E63EF71E0CE018F960E94780E30
:1039B00068E372E0CE0189960E94780E65EF71E0AF
:1039C000C6010E94780EB601CE0183960E945E0E5B
:1039D000BE01675D7F4FCE0183960E947713BE01C3
:1039E000615D7F4F0E947713BE016B5C7F4F0E9429
:1039F0007713BC018CE593E00E94A10ECE01839663
:103A00000E94590EC6010E94590ECE0189960E944D
:103A1000590ECE018F960E94590ECE01C5960E9476
:103A2000590E67EF71E0CE01C5960E94780E69EFDE
:103A300071E0CE018F960E94780E69E971E0CE01A7
:103A400089960E94780E6BEF71E0C6010E94780E95
:103A5000B601CE0183960E945E0EBE01675D7F4F68
:103A6000CE0183960E947713BE01615D7F4F0E9455
:103A70007713BE016B5C7F4F0E947713BC018CE50E
:103A800093E00E94A10ECE0183960E94590EC601BA
:103A90000E94590ECE0189960E94590ECE018F9632
:103AA0000E94590ECE01C5960E94590E0E943F12E7
:103AB00060E177E280E090E00E943218CE01CB9680
:103AC0000E94590E6DEF71E08DE393E00E948D0E20
:103AD00027968EAD9FAD2797892BB9F468EE73E0DA
:103AE00080E090E00E943218CE018F5B9F4F0E94D1
:103AF000590ECE01895B9F4F0E94590E811491048B
:103B000009F4F2CD0E940000EBCD6AE172E0239649
:103B10008EAD9FAD23970E94AF23892BF9F604E168
:103B200010E061E08DE00E94A91762E370E080E0A0
:103B300090E00E94321860E08DE00E94A91762E3D5
:103B400070E080E090E00E9432180150110949F7BE
:103B5000C5CFAC014052510957FF02C04F5F5F4FC4
:103B6000559547956357710977FF02C06F5F7F4F87
:103B70007595679590E2E92EF12C03E710E024E8B3
:103B800030E0B5CB61E0809181030E94F61761E0DF
:103B9000809182030E94F61780918103082E000C09
:103BA000990BFC01E559F14FE491F0E0EE0FFF1F96
:103BB000EF59F14F25913491309389032093880375
:103BC000FC01E158F14FE491E0938E038091820370
:103BD000082E000C990BFC01E559F14FE491F0E03F
:103BE000EE0FFF1FEF59F14FA591B491B0938B03E6
:103BF000A0938A03FC01E158F14FE491E0938F0315
:103C00008C91E82BEC938091760390917703892B2C
:103C100009F434C01FB7F89480914402811127C081
:103C2000E5E7FEE08491E9E8FEE09491E82FF0E01A
:103C3000EE0FFF1FEC5DF64FA591B491EC91E923D7
:103C400021F461E08AE00E94A91761E08AE00E9405
:103C5000F6178CB580618CBD8CB580648CBD61E03D
:103C60008DE00E94F61761E08BE00E94F6178091CC
:103C700044028F5F809344021FBF7DCB61E080913F
:103C80007F030E94F61761E0809180030E94F6177F
:103C900080917F03082E000C990BFC01E559F14F30
:103CA000E491F0E0EE0FFF1FEF59F14F25913491B1
:103CB0003093850320938403FC01E158F14FE49194
:103CC000E0938C0380918003082E000C990BFC017B
:103CD000E559F14FE491F0E0EE0FFF1FEF59F14F7E
:103CE000A591B491B0938703A0938603FC01E1589A
:103CF000F14FE491E0938D038C91E095E823EC93F0
:103D00003ACB8091760390917703892B31F08091A3
:103D10009003909191030E94A30FE0918A03F09188
:103D20008B03908180918F0380958923808365CB5D
:103D300060E17ACB8034910509F094CB63E081E7B0
:103D400090E00E948A1180917D03813011F06FEC28
:103D500019C06FE917C08036910509F083CB8091B7
:103D6000620390916303409709F07CCB63E08EE699
:103D700090E00E948A1180917D03813011F06FEAFA
:103D800001C060E18CE593E00E94400F6BCB62E2E2
:103D900074CBE0918A03F0918B03908180918F0323
:103DA000892B80838091760390917703892B09F486
:103DB0008DCB0E94380F8ACBC6010E94260EFDCC07
:103DC00087E393E00E94590E80E291E090933E03D6
:103DD00080933D0380914202909143028D53934022
:103DE00071F4E0915003F09151039081809152035E
:103DF000809589238083109243021092420282E3CD
:103E000091E090935D0380935C0380917A0390919D
:103E10007B03009711F00C944B2208950F931F938E
:103E200010929D0310929C0308EE13E020E030E016
:103E300000939E0310939F032093A0033093A1034C
:103E40008EE091E090939B0380939A0310925F031E
:103E500010925E0340E850E050936103409360038A
:103E600080E490E090936303809362035093650332
:103E700040936403909367038093660310927103E9
:103E8000109269031092680310926B0310926A03F8
:103E900061E0609370038FEF9FEF90936F038093C7
:103EA0006E0390936D0380936C0360937203109282
:103EB0007303109275031092740382E391E0909360
:103EC0005D0380935C0310927703109276038AE976
:103ED00093E0909379038093780310927B03109280
:103EE0007A038FEF80937F03809380038093810315
:103EF000809382038093830380E580939003609393
:103F0000910380E89AE1A6E0B0E080939203909359
:103F10009303A0939403B093950380EA96E8A1E0FD
:103F2000B0E08093960390939703A0939803B09387
:103F300099031092400310923F03009341031093A2
:103F40004203209343033093440380E291E0909333
:103F50003E0380933D03109254031092530310923A
:103F60005603109255031092580310925703109263
:103F70005A031092590380915B038E7F8D7F80934B
:103F80005B0386958170682786E00E94A91761E02F
:103F900086E00E94F617E5E8FEE0E491E0934D0329
:103FA000E1E7FEE0E491F0E0EE0FFF1FEF59F14F83
:103FB0008591949190934F0380934E0360E087E046
:103FC0000E94F61780915B0381FD04C061E087E0E9
:103FD0000E94A91787E080934903E6E8FEE0E49198
:103FE000E0934A03E2E7FEE0E491F0E0EE0FFF1F0A
:103FF000E95AF14F8591949190934C0380934B0330
:1040000062E272E087E393E01F910F910C94780EC7
:104010008F929F92AF92BF92CF92DF92EF92FF92D8
:10402000CF93DF93EC01688179818A819B8161154F
:1040300071058105910521F464E279ED8BE597E046
:104040002DE133EF41E050E00E94EB2049015A019D
:104050009B01AC01A7EAB1E40E940A216B017C013B
:10406000ACEEB4EFA50194010E941821DC01CB0154
:104070008C0D9D1DAE1DBF1DB7FF03C00197A1098B
:10408000B04888839983AA83BB83BC01CD019F7705
:10409000DF91CF91FF90EF90DF90CF90BF90AF90E6
:1040A0009F908F9008958F929F92AF92BF92CF92E0
:1040B000DF92EF92FF926091000170910101809177
:1040C000020190910301611571058105910521F4AB
:1040D00064E279ED8BE597E02DE133EF41E050E0CC
:1040E0000E94EB2049015A019B01AC01A7EAB1E40F
:1040F0000E940A216B017C01ACEEB4EFA501940192
:104100000E941821DC01CB018C0D9D1DAE1DBF1D31
:10411000B7FF03C00197A109B048809300019093B5
:104120000101A0930201B0930301BC01CD019F776F
:10413000FF90EF90DF90CF90BF90AF909F908F90C7
:1041400008956093000170930101809302019093A0
:1041500003010895BB272A3051F4992342F4BDE2AC
:1041600090958095709561957F4F8F4F9F4F0C94E0
:10417000BA20BB27FA01A62F6217710581059105A8
:10418000330B30FB66F0AA27660F771F881F991F35
:10419000AA1FA21710F0A21B63953850A9F7A05DC3
:1041A000AA3308F0A95DA19336F7B111B19310823B
:1041B000CA010C94DB20DC01FC01672F719177238D
:1041C000E1F7329704C07C916D9370836291AE17D2
:1041D000BF07C8F30895052E97FB1EF400940E94B4
:1041E000022157FD07D00E94542107FC03D04EF452
:1041F0000C94022150954095309521953F4F4F4F9B
:104200005F4F089590958095709561957F4F8F4F82
:104210009F4F08950E947621A59F900DB49F900D09
:10422000A49F800D911D11240895B7FF0C940A21BD
:104230000E940A21821B930B08952F923F924F9266
:104240005F926F927F928F929F92AF92BF92CF9226
:10425000DF92EF92FF920F931F93CF93DF93CDB72F
:10426000DEB7CA1BDB0B0FB6F894DEBF0FBECDBFA7
:1042700009942A88398848885F846E847D848C8478
:104280009B84AA84B984C884DF80EE80FD800C8181
:104290001B81AA81B981CE0FD11D0FB6F894DEBF64
:1042A0000FBECDBFED010895A1E21A2EAA1BBB1BC4
:1042B000FD010DC0AA1FBB1FEE1FFF1FA217B307F2
:1042C000E407F50720F0A21BB30BE40BF50B661F08
:1042D000771F881F991F1A9469F7609570958095CC
:1042E00090959B01AC01BD01CF010895A29FB00143
:1042F000B39FC001A39F700D811D1124911DB29F1A
:10430000700D811D1124911D089597FB072E16F441
:10431000009407D077FD09D00E94992107FC05D0B1
:104320003EF4909581959F4F0895709561957F4FCC
:104330000895AA1BBB1B51E107C0AA1FBB1FA617EC
:10434000B70710F0A61BB70B881F991F5A95A9F73E
:1043500080959095BC01CD010895EE0FFF1F05904B
:10436000F491E02D09940F931F93CF93DF93823044
:10437000910510F482E090E0E091AD03F091AE037E
:1043800020E030E0A0E0B0E0309719F140815181A9
:104390000281138148175907C8F08417950769F4FB
:1043A000109731F012960C93129713961C9327C016
:1043B0000093AD031093AE0322C02115310519F00F
:1043C0004217530718F49A01BD01EF01DF01F8010C
:1043D000DBCF21153105F9F0281B390B24303105CD
:1043E00080F48A819B816115710521F0FB01938323
:1043F000828304C09093AE038093AD03FE01329696
:1044000044C0FE01E20FF31F8193919322503109C2
:10441000398328833AC02091AB033091AC03232B1E
:1044200041F420910601309107013093AC032093B1
:10443000AB0320910401309105012115310541F4B0
:104440002DB73EB74091080150910901241B350B4F
:10445000E091AB03F091AC03E217F307A0F42E1B3D
:104460003F0B2817390778F0AC014E5F5F4F2417D8
:10447000350748F04E0F5F1F5093AC034093AB03DA
:104480008193919302C0E0E0F0E0CF01DF91CF9102
:104490001F910F910895CF93DF93009709F481C086
:1044A000FC01329713821282A091AD03B091AE034A
:1044B000109781F420813181820F931F2091AB03EB
:1044C0003091AC032817390751F5F093AC03E09312
:1044D000AB0367C0ED0120E030E0CE17DF0740F40A
:1044E0004A815B819E0141155105F1F0EA01F5CF4A
:1044F000D383C28340815181840F951FC817D90788
:1045000059F488819981840F951F02969183808345
:104510008A819B81938382832115310529F4F0934D
:10452000AE03E093AD033DC0E901FB83EA8349910B
:104530005991C40FD51FEC17FD0761F4808191815B
:10454000840F951F0296E901998388838281938164
:104550009B838A83E0E0F0E012968D919C91139703
:10456000009719F0FD01DC01F7CF8D919C91119717
:104570009D012E5F3F4F820F931F2091AB0330911F
:10458000AC032817390769F4309729F41092AE0369
:104590001092AD0302C013821282B093AC03A093B9
:1045A000AB03DF91CF910895A0E0B0E0EAEDF2E235
:1045B0000C942121EC01009721F4CB010E94B3213E
:1045C000B4C0FC01E60FF71F9C0122503109E2172D
:1045D000F30708F4A8C0D9010D911C911197061793
:1045E0001707B0F00530110508F49BC0C801049707
:1045F0008617970708F495C002501109061B170B80
:10460000019311936D937C93CF010E944B2289C03B
:104610005B01A01AB10A4C01800E911EA091AD035E
:10462000B091AE03612C712CE12CF12C109709F4A0
:1046300046C08D919C911197A815B905B1F56C01F3
:1046400042E0C40ED11CCA14DB0478F14C018A1874
:104650009B08640142E0C40ED11C1296BC901297D4
:104660001396AC91B5E0CB16D10440F0B282A3838F
:1046700091828082D9016D937C9309C00E5F1F4F98
:10468000800F911FF90191838083EB2DFA2FE114A4
:10469000F10431F0D7011396FC93EE93129741C0C9
:1046A000F093AE03E093AD033CC06816790608F4BE
:1046B0003C017D0112960D90BC91A02DB7CF809149
:1046C000AB039091AC0388169906E1F46616770661
:1046D000C8F48091040190910501009741F48DB7D1
:1046E0009EB74091080150910901841B950BE81772
:1046F000F907C8F4F093AC03E093AB03F9017183BD
:1047000060830FC0CB010E94B3217C01009759F058
:10471000A801BE010E949F23CE010E944B22C70127
:1047200004C0CE0102C080E090E0CDB7DEB7EEE07D
:104730000C943D2181E090E0F8940C94BF23FB01A0
:10474000DC0102C001900D9241505040D8F708950D
:10475000DC0101C06D9341505040E0F70895FB012A
:10476000DC018D91019080190110D9F3990B089506
:10477000FB01DC0101900D920020E1F7089517E0A4
:10478000CBE4D7E004C0FE010E94AD212196CC34D9
:08479000D107C9F7F894FFCF2F
:10479800010000000000AF03800000000000220CB0
:1047A800F50B520CB807ED0BD90BCA0B0000000033
:1047B800B9077607520CB80709082108A0070000B6
:1047C8000000220D7607520C510C4208B807DD0A8A
:1047D800B50AD10AC50AE40AB8070009A60F930C5E
:1047E800D70CFE09E1097409150942425120697381
:1047F80020626F6F74696E67202E2E2E0041542B35
:1048080049424541300041542B524F4C45300041FC
:10481800542B555549443078464645300041542B71
:10482800434841523078464645310041542B4E4169
:104838004D454242510041542B52455345540020A6
:10484800646567726565730074656D703A0042420D
:104858007150347373576F72440041646D696E20F0
:1048680070616E656C00456E6372797074696F6E05
:10487800206B6579203A0070006400420045006FA3
:1048880000520049006300330032004E00464C419C
:10489800472D46754E5731746843683472616374A6
:1048A8003372697374317175650070696E67000DD4
:1048B8000A00464C41472D52656D307633443362C9
:0A48C800754743306E54336E7400E0
:00000001FF
